:04000000B5EF0EF05A
:101D6A000A6A096A0001D4EF0EF0D388D38AD38CA9
:101D7A009B8C939A94968B9694948B94928092824D
:101D8A000F010F0138910F010F0138938090809253
:101D9A0093928A92000E0A6E000E096E1200BAEC35
:101DAA000EF029EC0FF0066E000E076E0650066E56
:101DBA00000E086E0650066E000E086E0650066E7D
:101DCA00000E076E065000D092EC0FF08050010B07
:101DDA00066E8030010B020DF3500624086E075080
:101DEA000818D8B401D001D0EFD7086601D001D0C5
:101DFA0002D08B9622D00804D8A401D001D002D0F8
:101E0A008B861BD00850020AD8A401D001D006D074
:101E1A008B94000E0A6E000E096E0FD00850030A4A
:101E2A00D8A401D001D009D08B84000E0A6E010E0D
:101E3A00096E03D002D001D000D008C007F0C4D781
:101E4A00C3D7C2D700EF00F0000E036E000E026E79
:101E5A000350800A800F030ED8B4025CD8A001D0C8
:101E6A0001D002D059D058D08A8A000E056E000ED1
:101E7A00046E0550800A800F080ED8B4045CD8A0FE
:101E8A0001D001D002D015D014D0D00E016EC90EE7
:101E9A00E82EFED7012EFCD700D0044A052A0550A9
:101EAA00800A800F080ED8B4045CD8A001D001D0F3
:101EBA00ECD78A9A000E056E000E046E0550800A51
:101ECA00800F080ED8B4045CD8A001D001D002D08B
:101EDA0016D015D0D00E016EC90EE82EFED7012EEF
:101EEA00FCD700D0044A052A0550800A800F080E44
:101EFA00D8B4045CD8A001D001D0ECD700D0024AF3
:101F0A00032A0350800A800F030ED8B4025CD8A0BB
:101F1A0001D001D0A9D700D012008A82190E016E11
:101F2A00EE0EE82EFED7012EFCD700F00A5009105B
:101F3A00D8A401D001D02FD08A92110E016E9E0E24
:101F4A00E82EFED7012EFCD700F0000E036E000E1D
:101F5A00026E0350800A800F120ED8B4025CD8A019
:101F6A0001D001D002D046D045D0150E016EC60E62
:101F7A00E82EFED7012EFCD700F0024A032A0350AE
:101F8A00800A800F120ED8B4025CD8A001D001D00A
:101F9A00ECD730D02FD0110E016E9E0EE82EFED750
:101FAA00012EFCD700F08A92000E036E000E026E1C
:101FBA000350800A800F120ED8B4025CD8A001D058
:101FCA0001D002D017D016D0150E016EC60EE82E1B
:101FDA00FED7012EFCD700F0024A032A0350800ADA
:101FEA00800F120ED8B4025CD8A001D001D0ECD771
:061FFA0001D000D012002E
:020000040020DA
:08000000FFFFFFFFFFFFFFFF00
:020000040030CA
:0E000000FF38043CFF1981FF03C003E00340FA
:00000001FF
